:0C1918004100860041003C0041003D0001
:10194000EFD39400400B7ED2EE60031E80FA1F801E
:01195000EFA7
:011951002273
:03001B0002187553
:10187500C0E0C083C082C0D0C28F758D3C758BB06F
:1018850030000C900000E0D394004003E014F030E9
:10189500020C900012E0D394004003E014F03001F4
:1018A5000C900001E0D394004003E014F030030CE9
:1018B500900018E0D394004003E014F0D0D0D0821B
:0518C500D083D0E032E9
:03000B0002100FD1
:10100F00C0E0C0F0C083C082C0D075D000C000C0A7
:10101F0001C002C003C004C005C006C007C28D7561
:10102F008C3C758AB090008FE0702C90005CE06073
:10103F00267B017A00795C900060E0FDA3E09001CF
:10104F00D8F012118890008F7401F0900020740373
:10105F00F090001A7401F090001AE0B4011C900097
:10106F0020E0D394004003E014F0900020E0700AD9
:10107F0090008FF090003DE004F090003DE0D3949D
:10108F0004405D7E007F067D007B017A00795C1253
:10109F000DE3900086E4F0900086E0C39405503392
:1010AF00E075F006A42462F9740035F0FA7B01C0F4
:1010BF0001E075F006A4245CF9740035F0A801FC7A
:1010CF007D01D0017E007F06120CBC900086E004EB
:1010DF00F080C490008FE4F090003DF090001AF083
:1010EF00900021E0D394004003E014F0900021E041
:1010FF00702E90003704F0A3E4F090003B7402F0E0
:10110F00A3E4F07B017A0079371213F790003C7457
:10111F0001F0FB7A0079371213F79000217496F0E3
:10112F00900022E0D394004003E014F0900022E0FE
:10113F00702C9000377404F090003B7401F0A3E41E
:10114F00F07B017A0079371213F790003C7401F0AD
:10115F00FB7A0079371213F79000227432F0D00720
:10116F00D006D005D004D003D002D001D000D0D00B
:09117F00D082D083D0F0D0E03220
:08149F009001D2EFF0A3EDF083
:1014A7007E007F507D007B017A0179D4120DE39095
:1014B70001D47401F0A37403F09001D3E0FF2F90DF
:1014C70001D6F0E0FF7E00C006C0079001D2E075AC
:1014D700F002A42492F9740035F0FA7B0178D77CE6
:1014E700017D01D007D006120CBC7B017A0179D4AB
:1014F7009001D6E02403FDE433FC12166290022427
:10150700EEF0A3EFF07B017A027924C0019001D6B7
:10151700E024D7F9E43401A801FC7D01D0017E0065
:101527007F02120CBC7B017A0179D49001D6E024AA
:0515370005FD1217B2D2
:01153C00228C
:0E06E9009001D2EFF0A3EBF0A3EAF0A3E9F04A
:1006F7007E007F227D007B017A0179D7120DE3907E
:1007070001D77401F0A37410F0E4A3F09001D2E0D4
:100717009001DAF0E4A3F0A3F07B017A0179D77DA9
:1007270006FC1216629001F9EEF0A3EFF07B017A56
:100737000179F978DD7C017D017E007F02120CBC16
:100747007B017A0179D77D081217B29001D2E07048
:1007570043A3E0FBA3E0FAA3E0F9C0019001D2E0D4
:1007670075F002A42492F9740035F0A801FC7D010C
:10077700D0017E007F02120CBC9001D3E0FBA3E006
:10078700FAA3E0F9900001120CFBFF90003FE4F0A0
:10079700A3EFF0229001D2E064017043A3E0FBA332
:1007A700E0FAA3E0F9C0019001D2E075F002A424B9
:1007B70092F9740035F0A801FC7D01D0017E007F1D
:1007C70002120CBC9001D3E0FBA3E0FAA3E0F9907E
:1007D7000001120CFBFF900089E4F0A3EFF02290D8
:1007E70001D2E064027050A3E0FBA3E0FAA3E0F9B2
:1007F700C0019001D2E075F002A42492F97400358B
:10080700F0A801FC7D01D0017E007F02120CBC9094
:1008170001D3E0FBA3E0FAA3E0F9900001120CFB7F
:10082700FD9001D3E0A3E0A3E0120CE2FFED9000FE
:1008370084CFF0A3EFF0229001D2E064037050A3BD
:10084700E0FBA3E0FAA3E0F9C0019001D2E075F064
:1008570002A42492F9740035F0A801FC7D01D001AF
:100867007E007F02120CBC9001D3E0FBA3E0FAA349
:10087700E0F9900001120CFBFD9001D3E0A3E0A387
:10088700E0120CE2FFED90008BCFF0A3EFF0229087
:1008970001D2E064047075A3E0FBA3E0FAA3E0F9DA
:1008A700C0019001D2E075F002A42492F9740035DA
:1008B700F0A801FC7D01D0017E007F04120CBC90E2
:1008C70000377402F09001D3E0FBA3E0FAA3E0F94C
:1008D700900003120CFB900038F09001D3E0A3E0E6
:1008E700A3E0120CE2900039F09001D3E0A3E0A35B
:1008F700E0900001120CFB90003AF0A37404F0E4BE
:10090700A3F07B017A0079371213F7229001D2E026
:1009170064077043A3E0FBA3E0FAA3E0F9C00190EA
:1009270001D2E075F002A42492F9740035F0A80111
:10093700FC7D01D0017E007F02120CBC9001D3E048
:10094700FBA3E0FAA3E0F9900001120CFBFF900073
:100957005AE4F0A3EFF0229001D2E064087043A3B9
:10096700E0FBA3E0FAA3E0F9C0019001D2E075F043
:1009770002A42492F9740035F0A801FC7D01D0018E
:100987007E007F02120CBC9001D3E0FBA3E0FAA328
:10099700E0F9900001120CFBFF90008DE4F0A3EF4B
:1009A700F0229001D2E064097050A3E0FBA3E0FAC3
:1009B700A3E0F9C0019001D2E075F002A42492F9F6
:1009C700740035F0A801FC7D01D0017E007F021282
:1009D7000CBC9001D3E0FBA3E0FAA3E0F99000017F
:1009E700120CFBFD9001D3E0A3E0A3E0120CE2FFA1
:1009F700ED900087CFF0A3EFF0229001D2E0640AD8
:100A07007050A3E0FBA3E0FAA3E0F9C0019001D284
:100A1700E075F002A42492F9740035F0A801FC7D7A
:100A270001D0017E007F02120CBC9001D3E0FBA332
:100A3700E0FAA3E0F9900001120CFBFD9001D3E06E
:100A4700A3E0A3E0120CE2FFED900090CFF0A3EF3C
:100A5700F0229001D2E0640B7075A3E0FBA3E0FAEB
:100A6700A3E0F9C0019001D2E075F002A42492F945
:100A7700740035F0A801FC7D01D0017E007F0412CF
:100A87000CBC9000377402F09001D3E0FBA3E0FAAE
:100A9700A3E0F9900003120CFB900038F09001D30B
:100AA700E0A3E0A3E0120CE2900039F09001D3E05C
:100AB700A3E0A3E0900001120CFB90003AF0A374AE
:100AC70004F0A37401F0FB7A0079371213F7229030
:100AD70001D2E064067056A3E0FBA3E0FAA3E0F9B5
:100AE700C0019001D2E075F002A42492F974003598
:100AF700F0A801FC7D01D0017E007F02120CBC90A2
:100B070000377403F09001D3E0FBA3E0FAA3E0F908
:100B1700900001120CFB900038F090003B7402F03B
:100B2700E4A3F07B017A0079371213F7229001D200
:100B3700E0640D7055A3E0FBA3E0FAA3E0F9C00160
:100B47009001D2E075F002A42492F9740035F0A860
:100B570001FC7D01D0017E007F02120CBC900037A2
:100B67007403F09001D3E0FBA3E0FAA3E0F990004F
:100B770001120CFB900038F090003B7402F0A314B4
:100B8700F0FB7A0079371213F7229001D2E0B41EF6
:100B970029A3E0FBA3E0FAA3E0F9C0019001D2E0AA
:100BA70075F002A42492F9740035F0A801FC7D01C8
:100BB700D0017E007F02120CBC229001D3E0FBA380
:100BC700E0FAA3E0F9C0019001D2E075F002A42495
:100BD70092F9740035F0A801FC7D01D0017E007FF9
:040BE70002120CBC2E
:010BEB0022E7
:10004600C2A0C2A1C2A2C2A31218CA1218F21219E1
:100056002D1200007F64121940758911758C3C754C
:100066008AB0D2A9D288C28DD28C758D3C758BB0E0
:10007600D2ABD28AC28FD28ED2AFD200C202E49065
:10008600003FF0A3F0900089F0A3F0900084F0A365
:10009600F090008BF0A3F0D201C20390005AF0A3B7
:1000A600F090008DF0A3F0900087F0A3F090009000
:1000B600F0A3F0C2A4C2A590000E120DB20000007B
:1000C60000900013120DB200000000900080120D87
:1000D600B200000000900006120DB2000000009071
:1000E6000002120DB20000000090001B120DB200BB
:1000F60000000090000A120DB200000000E490011A
:10010600C7F0900133F09001AEF090011EF0900020
:100116008FF0900022F0900021F0FE7F84FD7B019D
:100126007A007992120DE3E4900086F0900086E062
:10013600C3940650287E007F06C006C0077D00E0F7
:1001460075F006A4245CF9740035F0FA7B01D0073B
:10015600D006120DE3900086E004F080CF30002F29
:10016600900000E07029900089E0FEA3E0FF7C008B
:100176007D0A120D28EF75F0FFA4F5FAD202C2002F
:1001860090008CE0900012F0E4FDAFFA120000300F
:10019600022F900012E0702990003FE0FEA3E0FFDE
:1001A6007C007D0A120D28EF75F0FFA4F5FAD20047
:1001B600C202900085E0900000F0E4FDAFFA120064
:1001C6000030012F900001E0702990008DE0FEA321
:1001D600E0FF7C007D0A120D28EF75F0FFA4F5FB09
:1001E600D203C201900091E0900018F07D01AFFBB0
:1001F60012000030032F900018E0702990005AE09A
:10020600FEA3E0FF7C007D0A120D28EF75F0FFA427
:10021600F5FBD201C203900088E0900001F07D0159
:10022600AFFB120000900133E0D394004008121691
:10023600D790011EEFF090011EE0640160030202F8
:10024600D3900137E024F06013240D707B900139C0
:10025600E0FF90013BE0FD12149F806C90013BE0B3
:10026600B4012990013DE09001CEF090013EE0906E
:1002760001CFF0E4A3F0A3F0900139E0FF7B017A0F
:100286000179CE9001D67401F01206E990013BE0A7
:100296006402703490013DE09001CEF090013EE0A2
:1002A6009001CFF090013FE09001D0F0900140E046
:1002B6009001D1F0900139E0FF7B017A0179CE906F
:1002C60001D67402F01206E9E490011EF09001C70F
:1002D600E0D39400403F9001B2E0FF1212D1E490C7
:1002E6000086F0900086E0C394135023E024B3F513
:1002F60082E43401F583E0FF900086E024B2F582C3
:10030600E43401F583EFF0900086E004F080D490A9
:1003160001C7E014F09001AEE064016003020163DE
:10032600900154E0640970030206C8E0FF1200263B
:10033600E490001AF0900154E0640860030206019C
:10034600900061E07077900156E0FFE4FCFDFE78D6
:1003560010120D93C004C005C006C007900155E0F9
:10036600FFE4FCFDFE7818120D93D003D002D001F5
:10037600D000EF4BFFEE4AFEED49FDEC48FCC00411
:10038600C005C006C007900157E0FFE4FCFDFE78FB
:1003960008120D93D003D002D001D000EF4BFBEE34
:1003A6004AFAED49F9EC48F8A3E0FFE4EB4FFFEA1F
:1003B600FEE9FDE8FC90000E120DA6807590015630
:1003C600E0FFE4FCFDFE7810120D93C004C005C0EA
:1003D60006C007900155E0FFE4FCFDFE7818120DFB
:1003E60093D003D002D001D000EF4BFFEE4AFEEDD2
:1003F60049FDEC48FCC004C005C006C00790015783
:10040600E0FFE4FCFDFE7808120D93D003D002D085
:1004160001D000EF4BFBEE4AFAED49F9EC48F8A3A0
:10042600E0FFE4EB4FFFEAFEE9FDE8FC9000131263
:100436000DA69000CEE07004A3E06401704A90001F
:1004460013E0FCA3E0FDA3E0FEA3E0FF90000EE0B6
:10045600F8A3E0F9A3E0FAA3E02FFFEA3EFEE93DA8
:10046600FDE83CFC90000A120DA690000AE0FCA3F1
:10047600E0FDA3E0FEA3E0FF9001D4120DA67F0EDF
:100486007E0012153D02058C9000CEE07004A3E0BC
:100496006402704A900013E0FCA3E0FDA3E0FEA313
:1004A600E0FF90000EE0F8A3E0F9A3E0FAA3E02F46
:1004B600FFEA3EFEE93DFDE83CFC90001B120DA65E
:1004C60090000AE0FCA3E0FDA3E0FEA3E0FF90019C
:1004D600D4120DA67F107E0012153D02058C9000E9
:1004E600CEE07004A3E064037049900013E0FCA31F
:1004F600E0FDA3E0FEA3E0FF90000EE0F8A3E0F924
:10050600A3E0FAA3E02FFFEA3EFEE93DFDE83CFC4E
:10051600900002120DA690000AE0FCA3E0FDA3E005
:10052600FEA3E0FF9001D4120DA67F127E001215E5
:100536003D80539000CEE07004A3E06404704790C1
:100546000013E0FCA3E0FDA3E0FEA3E0FF90000E95
:10055600E0F8A3E0F9A3E0FAA3E02FFFEA3EFEE904
:100566003DFDE83CFC900006120DA690000AE0FC5A
:10057600A3E0FDA3E0FEA3E0FF9001D4120DA67F49
:10058600147E0012153D90001BE0FCA3E0FDA3E0E5
:10059600FEA3E0FF90000AE0F8A3E0F9A3E0FAA3C7
:1005A600E02FFFEA3EFEE93DFDE83CFC900002E05C
:1005B600F8A3E0F9A3E0FAA3E02FFFEA3EFEE93D47
:1005C600FDE83CFCA3E0F8A3E0F9A3E0FAA3E02FE2
:1005D600FFEA3EFEE93DFDE83CFC900080120DA6D8
:1005E60090000AE0FCA3E0FDA3E0FEA3E0FF90017B
:1005F600D4120DA67F167E0012153D900154E064BC
:1006060005706A900061E07034900155E0FF90003B
:10061600C6E4F0A3EFF09000D0E0FEA3E0FF900068
:10062600C6E06E7003A3E06F600A9000CAE4F0A310
:1006360004F08039E49000CAF0A3F08030900155B0
:10064600E0FF9000D4E4F0A3EFF09000D2E0FEA328
:10065600E0FFA3E06E7003A3E06F600A9000CCE4B5
:10066600F0A304F08007E49000CCF0A3F07E007FB6
:10067600067D007B017A00795C120DE3E49000862A
:10068600F0900086E0C394055033E075F006A4248C
:1006960062F9740035F0FA7B01C001E075F006A43A
:1006A600245CF9740035F0A801FC7D01D0017E00C0
:1006B6007F06120CBC900086E004F080C4E4900033
:1006C6008FF0900154E0B4091190005CE0FF9001B6
:1006D60055E0B50705E490001AF0E49001AEF0028B
:0206E6000163AE
:0106E80022EF
:100026009001D27409F0A3EFF07B017A0179D290A6
:0C0036000061E09001D8F07D02121188FA
:01004200229B
:08153D009001D2EEF0A3EFF0E3
:10154500E49001D8F0A3F0FBFA9001D4E0FCA3E00D
:10155500FDA3E0FEA3E0FFEEE4AA06AB079001D6EB
:10156500E0A3E07810CEC313CE13D8F9FF9001D8CD
:10157500EEF0A3EFF0AE02AF03E4FCFD7810120D20
:1015850093A804A905AA06AB079001D8E0FEA3E03D
:10159500FFE4FCFDEB2FFFEA3EFEED39FDEC38FCE8
:1015A5009001D4120DA67B017A0179D4C001900176
:1015B500D3E025E0FF9001D2E033FE74922FF97459
:1015C500003EA801FC7D01D0017E007F04120CBC09
:0115D50022F3
:0B13F7009001FBEBF0A3EAF0A3E9F08B
:10140200E4FFFEEFC39406400302149EEF75F0065C
:10141200A4245CF582E43400F583E060429001FB91
:10142200E0FBA3E0FAA3E0F9120CE2FDEF75F0068F
:10143200A4245CF582E43400F583E06D705A9001D7
:10144200FBE0A3E0A3E0900005120CFBFDEF75F0BA
:1014520006A42461F582E43400F583E06D7039E47A
:10146200FEEEC3940650359001FBE0FBA3E0FAA325
:10147200E0F98E82758300120CFBFDEF75F006A475
:10148200245CF582E43400F583E5822EF582E435AE
:0C14920083F583EDF00E80C90F021405F5
:01149E00222B
:100E0F0000C1814001C0804101C0804100C18140CB
:100E1F0001C0804100C1814000C1814001C08041BB
:100E2F0001C0804100C1814000C1814001C08041AB
:100E3F0000C1814001C0804101C0804100C181409B
:100E4F0001C0804100C1814000C1814001C080418B
:100E5F0000C1814001C0804101C0804100C181407B
:100E6F0000C1814001C0804101C0804100C181406B
:100E7F0001C0804100C1814000C1814001C080415B
:100E8F0001C0804100C1814000C1814001C080414B
:100E9F0000C1814001C0804101C0804100C181403B
:100EAF0000C1814001C0804101C0804100C181402B
:100EBF0001C0804100C1814000C1814001C080411B
:100ECF0000C1814001C0804101C0804100C181400B
:100EDF0001C0804100C1814000C1814001C08041FB
:100EEF0001C0804100C1814000C1814001C08041EB
:100EFF0000C1814001C0804101C0804100C18140DB
:100F0F0000C0C101C30302C2C60607C705C5C4049A
:100F1F00CC0C0DCD0FCFCE0E0ACACB0BC90908C80A
:100F2F00D81819D91BDBDA1A1EDEDF1FDD1D1CDCFA
:100F3F0014D4D515D71716D6D21213D311D1D0106A
:100F4F00F03031F133F3F23236F6F737F53534F45A
:100F5F003CFCFD3DFF3F3EFEFA3A3BFB39F9F838CA
:100F6F0028E8E929EB2B2AEAEE2E2FEF2DEDEC2CBA
:100F7F00E42425E527E7E62622E2E323E12120E02A
:100F8F00A06061A163A3A26266A6A767A56564A41A
:100F9F006CACAD6DAF6F6EAEAA6A6BAB69A9A8688A
:100FAF0078B8B979BB7B7ABABE7E7FBF7DBDBC7C7A
:100FBF00B47475B577B7B67672B2B373B17170B0EA
:100FCF0050909151935352929656579755959454DA
:100FDF009C5C5D9D5F9F9E5E5A9A9B5B995958984A
:100FEF00884849894B8B8A4A4E8E8F4F8D4D4C8C3A
:100FFF0044848545874746868242438341818040AA
:0819240041011600410117000A
:1018CA0053A27F438E1D53873F4387807598507577
:1018DA009CD9D2ACD2AFE49001B1F090011AF09049
:0818EA0001AFF0900118F0229B
:1018F20043A210438E1D438780439A50759CD9435F
:10190200AF01D2AFE49001C6F090011BF09001B09C
:06191200F0900119F02223
:03002300021816AA
:10181600C0E0C083C082C0D075D000C00730981623
:10182600C298900133E0FF04F0741F2FF582E43470
:1018360001F583E599F030992BC29990011AE0FFE2
:101846009001B1E0C39F5013E0FF04F074722FF5CE
:1018560082E43401F583E0F599800990011AE4F0F9
:0F1866009001B1F0D007D0D0D082D083D0E03243
:030043000217455C
:10174500C0E0C083C082C0D075D000C007E59A3024
:10175500E017539AFE9001C7E0FF04F074B22FF52D
:1017650082E43401F583E59BF0E59A30E134539A40
:10177500FD90011BE0FF9001C6E0C39F5013E0FF01
:1017850004F074902FF582E43401F583E0F59B8035
:101795001190011BE4F09001C6F0C2A0C2A1C2A243
:0D17A500C2A3D007D0D0D082D083D0E032D4
:0512D1009001D2EFF0D6
:1012D600E4A3F0A3F0A3F0900116E014602C0460E0
:1012E600030213F69001D2E0F460030213F69001B4
:1012F6001604F0E4900135F0900134F0FE7F1EFDF7
:101306007B017A017954120DE3229001D2E064FE4A
:10131600604AE0B4FD079001177401F022900117AE
:10132600E070199001D2E0FF900134E0FE04F07401
:10133600542EF582E43401F583EFF0229001D2E0D9
:1013460024FDFF900134E0FE04F074542EF582E48F
:101356003401F583EFF0E4900117F022900134E0B8
:101366002452F582E43401F583E0B4FD1D90013486
:10137600E02453F582E43401F583E024FD9001D4A2
:10138600F0900134E024FEF08018900134E02453FC
:10139600F582E43401F583E09001D4F0900134E065
:1013A60014F0E49001D5F0900134E0FF9001D5E00F
:1013B600C39F501AE02454F582E43401F583E0FF1C
:1013C6009001D3E02FF09001D5E004F080D9900190
:1013D600D3E0FFA3E0B507089001AE7401F08005E5
:1013E600E49001AEF0900134E0A3F0E4900116F031
:0113F60022D4
:0E17B200900226EBF0A3EAF0A3E9F0A3EDF01D
:1017C000E4FFFE90017274FFF0E4900229E0FDEF67
:1017D000C39D5026900226E0FBA3E0FAA3E0F98F18
:1017E00082758300120CFBFDAC060E74722CF58220
:1017F000E43401F583EDF00F80D090011AEEF0E4AF
:101800009001B1F0E0FF04F074722FF582E434012E
:05181000F583E0F599ED
:0118150022B0
:0E1188009001D4EBF0A3EAF0A3E9F0A3EDF0A0
:10119600E4FF7E019001D9F09001D7E0FDEFC39DF9
:1011A600501D9001D4E0FBA3E0FAA3E0F98F82750D
:1011B6008300120CFBFD9001D9E02DF00F80D99031
:1011C600019074FFF0E4FF9001D7E0FDEFC39D505E
:1011D600729001D4E0FBA3E0FAA3E0F98F82758355
:1011E60000120CFBC394FD50229001D4E0A3E0A3AF
:1011F600E08F82758300120CFBFDAC060E74902CFA
:10120600F582E43401F583EDF08035AD060E749079
:101216002DF582E43401F58374FDF09001D4E0FBF2
:10122600A3E0FAA3E0F98F82758300120CFB240376
:10123600FDAC060E74902CF582E43401F583EDF0D6
:101246000F80849001D9E0C394FD5013E0FFAD06F2
:101256000E74902DF582E43401F583EFF08026AF0D
:10126600060E74902FF582E43401F58374FDF09038
:1012760001D9E02403FFAD060E74902DF582E43407
:1012860001F583EFF0AF060E74902FF582E434017A
:10129600F58374FEF0AF0690011BEFF09001D8E0E5
:1012A600700AD2A0D2A1C2A2C2A38008C2A0C2A1C3
:1012B600D2A2D2A3E49001C6F0E0FF04F074902F0E
:0A12C600F582E43401F583E0F59BA6
:0112D00022FB
:10166200900226EBF0A3EAF0A3E9F0A3ECF0A3EDDD
:01167200F087
:10167300A374FFF0A3F090022974FFF5F0120D7D1F
:1016830045F06044900226E0FBA3E475F001120DDF
:101693007DA9F0FA120CE2FF90022BE06FFFE4FC4D
:1016A300FDFE90022D120DA6900230E0900E0F93D6
:1016B300FF90022CE06F90022BF0900230E0900F2D
:1016C3000F9390022CF080AE90022BE0FEA3E0FD7E
:0316D300EEEDFF3A
:0116D60022F1
:1016D700E4FF900133E0D394074058900120E0B431
:1016E70003027F08900120E0B401027F08900120E7
:1016F700E0B41009900124E0FE2E2409FF90013385
:10170700E06F7028F0FE7B017A01791F78367C0143
:101717007D01120CBC7E007F147D007B017A01796C
:101727001F120DE390011E7401F0800CE490011E5E
:0D173700F08005E490011EF090011EE0FF1F
:011744002282
:10192D00E4F5D875D902F5E9F5F975DA4275DB42BA
:03193D00D2DE22D5
:030000000215D610
:0C15D600787FE4F6D8FD75812002161D18
:100BEC00E709F608DFFA8046E709F208DFFA803EEB
:100BFC0088828C83E709F0A3DFFA8032E309F608D8
:100C0C00DFFA8078E309F208DFFA807088828C833F
:100C1C00E309F0A3DFFA806489828A83E0A3F608F3
:100C2C00DFFA805889828A83E0A3F208DFFA804CCD
:100C3C0080D280FA80C680D4806980F280338010A4
:100C4C0080A680EA809A80A880DA80E280CA80330D
:100C5C0089828A83ECFAE493A3C8C582C8CCC58385
:100C6C00CCF0A3C8C582C8CCC583CCDFE9DEE78055
:100C7C000D89828A83E493A3F608DFF9ECFAA9F0D4
:100C8C00EDFB2289828A83ECFAE0A3C8C582C8CC2A
:100C9C00C583CCF0A3C8C582C8CCC583CCDFEADE43
:100CAC00E880DB89828A83E493A3F208DFF980CCA5
:100CBC0088F0EF60010E4E60C388F0ED2402B4049E
:100CCC000050B9F582EB2402B4040050AF23234545
:060CDC008223900C3C7322
:100CE200BB010689828A83E0225002E722BBFE0210
:090CF200E32289828A83E4932243
:100CFB00BB010CE58229F582E5833AF583E02250AE
:100D0B0006E92582F8E622BBFE06E92582F8E222F7
:0D0D1B00E58229F582E5833AF583E4932211
:100D2800BC000BBE0029EF8DF084FFADF022E4CCAF
:100D3800F875F008EF2FFFEE33FEEC33FCEE9DEC78
:100D4800984005FCEE9DFE0FD5F0E9E4CEFD22EDBE
:100D5800F8F5F0EE8420D21CFEADF075F008EF2F08
:100D6800FFED33FD4007985006D5F0F222C398FDF9
:050D78000FD5F0EA2296
:100D7D00A3F8E0C5F025F0F0E58215827002158329
:060D8D00E0C838F0E82286
:100D9300E8600FEFC333FFEE33FEED33FDEC33FCBE
:030DA300D8F12262
:0C0DA600ECF0A3EDF0A3EEF0A3EFF022C0
:100DB200A8828583F0D083D082120DC9120DC91288
:100DC2000DC9120DC9E473E493A3C583C5F0C583AD
:100DD200C8C582C8F0A3C583C5F0C583C8C582C88B
:010DE20022EE
:100DE300EF4E6012EF60010EEDBB010B89828A8327
:100DF300F0A3DFFCDEFA2289F05007F709DFFCA934
:0C0E0300F022BBFEFCF309DFFCA9F0228A
:1015E200020046E493A3F8E493A34003F68001F2D9
:1015F20008DFF48029E493A3F85407240CC8C3330A
:10160200C4540F4420C8834004F456800146F6DFD8
:10161200E4800B0102040810204080901918E47E37
:10162200019360BCA3FF543F30E509541FFEE493CD
:10163200A360010ECF54C025E060A840B8E493A394
:10164200FAE493A3F8E493A3C8C582C8CAC583CABF
:10165200F0A3C8C582C8CAC583CADFE9DEE780BE77
:01192C0000BA
:00000001FF
