:0C0DDF00410111004100EB004100EC005C
:100DF400EFD39400400B7ED2EE60031E80FA1F8076
:010E0400EFFE
:010E050022CA
:03001B00020D1EB5
:100D1E00C0E0C083C082C0D0C28F758DEC758B7859
:100D2E009000CBE0B4010C9000D1E0D394004003CE
:100D3E00E014F09000CCE0B4010C9000D2E0D3941B
:0F0D4E00004003E014F0D0D0D082D083D0E03248
:08097C0090015CEFF0A3EDF027
:100984007E007F207D007B017A0179DE12063190A2
:1009940001DE7401F0A37403F090015DE0FF2F9079
:1009A40001E0F0E0FF7E00C006C00790015CE07546
:1009B400F004A4245EF9740135F0FA7B0178E17C3B
:1009C400017D01D007D0061205727B017A0179DE20
:1009D4009001E0E02402FDE433FC120A1A9001FEC7
:1009E400EEF0A3EFF07B017A0179FEC0019001E003
:1009F400E024E1F9E43401A801FC7D01D0017E008A
:100A04007F021205727B017A0179DE9001E0E02415
:050A140005FD120C04B9
:010A190022BA
:0E004600900200EFF0A3EBF0A3EAF0A3E9F0C4
:100054007E007F207D007B017A02790512063190B3
:1000640002057401F0A37410F0E4A3F0900200E020
:10007400900208F0E4A3F0A3F07B017A0279057DF5
:1000840006FC120A1A900225EEF0A3EFF07B017A27
:10009400027925780B7C027D017E007F02120572B5
:1000A4007B017A0279057D08120C04900200E06459
:1000B4000B6008E06404600302013E7B017A02796C
:1000C40001C001900200E075F002A4241CF974013F
:1000D40035F0A801FC7D01D0017E007F0412057279
:1000E4009000E77402F0900201E0FBA3E0FAA3E0C1
:1000F400F91205989000E8F0900201E0A3E0A3E073
:100104009000011205B19000E9F0900201E0A3E033
:10011400A3E09000021205B19000EAF07B017A009E
:1001240079E77D0412065D9000CC7401F09000D252
:10013400741EF09000EC7404F022900200E0641B42
:10014400704FA3E0FBA3E0FAA3E0F9C00190020022
:10015400E075F002A4241CF9740135F0A801FC7DBB
:1001640001D0017E007F021205729000E77401F055
:10017400E4A3F07B017A0079E77D0212065D90002A
:10018400CC7401F09000D2741EF09000EC7404F072
:1001940022900200E0640E6014E06410600FE064DA
:1001A40012600AE064146005E06416705190020164
:1001B400E0FBA3E0FAA3E0F9C001900200E075F0CF
:1001C40002A4241CF9740135F0A801FC7D01D001BE
:1001D4007E007F041205729000E77404F0E4A3F03B
:1001E4007B017A0079E77D0212065D9000CC7401F0
:1001F400F09000D2741EF09000EC7404F02290028F
:1002040000E064066005E0640D7060900201E0FBAC
:10021400A3E0FAA3E0F9C001900200E075F002A4A3
:10022400241CF9740135F0A801FC7D01D0017E0085
:100234007F021205729000E77403F0900201E0FB64
:10024400A3E0FAA3E0F91205989000E8F07B017AA4
:100254000079E77D0212065D9000CC7401F09000F5
:10026400D2741EF09000EC7404F022900201E0FBC2
:10027400A3E0FAA3E0F9C001900200E075F002A443
:10028400241CF9740135F0A801FC7D01D0017E0025
:050294007F021205725B
:010299002242
:03000B00020CC91B
:100CC900C0E0C083C082C0D0C28D758C3C758AB02B
:100CD90030000C9000B2E0D394004003E014F030EF
:100CE900020C9000C4E0D394004003E014F03001FA
:100CF9000C9000B3E0D394004003E014F030030CEF
:100D09009000CAE0D394004003E014F0D0D0D08220
:050D1900D083D0E032A0
:1008B400C2A0C2A1C2A2C2A3120D5D120D857F0AFD
:1008C400120DF4758911758C3C758AB0D2A9D28841
:1008D400C28DD28CD2AFD200D2019000EE7402F05D
:1008E400A374BCF0900114E4F0A3740AF090010F17
:1008F400E4F0A37432F0900116E4F0A37432F090A3
:1009040001097409F0A374C4F09001187409F0A3E8
:1009140074C4F09001127403F0A374E8F090011A07
:100924007403F0A374E8F09000C012060000000005
:10093400009000C51206000000000090010B120692
:1009440000000000009000B81206000000000090B3
:1009540000B4120600000000009000CD1206000052
:100964000000009000BC1206000000000075995AB7
:080974007F0A120DF480F62247
:1000260090023F7409F0A3EFF07B017A02793F7DDD
:0400360002120C04A2
:01003A0022A3
:100DCA009002417409F0A3EFF07B017A0279417D28
:040DDA000212065D9E
:010DDE0022F2
:10029A0000C1814001C0804101C0804100C181404C
:1002AA0001C0804100C1814000C1814001C080413C
:1002BA0001C0804100C1814000C1814001C080412C
:1002CA0000C1814001C0804101C0804100C181401C
:1002DA0001C0804100C1814000C1814001C080410C
:1002EA0000C1814001C0804101C0804100C18140FC
:1002FA0000C1814001C0804101C0804100C18140EC
:10030A0001C0804100C1814000C1814001C08041DB
:10031A0001C0804100C1814000C1814001C08041CB
:10032A0000C1814001C0804101C0804100C18140BB
:10033A0000C1814001C0804101C0804100C18140AB
:10034A0001C0804100C1814000C1814001C080419B
:10035A0000C1814001C0804101C0804100C181408B
:10036A0001C0804100C1814000C1814001C080417B
:10037A0001C0804100C1814000C1814001C080416B
:10038A0000C1814001C0804101C0804100C181405B
:10039A000000000000C0C101C30302C2C60607C7AD
:1003AA0005C5C404CC0C0DCD0FCFCE0E0ACACB0B9B
:1003BA00C90908C8D81819D91BDBDA1A1EDEDF1FCB
:1003CA00DD1D1CDC14D4D515D71716D6D21213D3BB
:1003DA0011D1D010F03031F133F3F23236F6F7376B
:1003EA00F53534F43CFCFD3DFF3F3EFEFA3A3BFB5B
:1003FA0039F9F83828E8E929EB2B2AEAEE2E2FEF0B
:10040A002DEDEC2CE42425E527E7E62622E2E3237A
:10041A00E12120E0A06061A163A3A26266A6A767AA
:10042A00A56564A46CACAD6DAF6F6EAEAA6A6BAB1A
:10043A0069A9A86878B8B979BB7B7ABABE7E7FBF4A
:10044A007DBDBC7CB47475B577B7B67672B2B3733A
:10045A00B17170B0509091519353529296565797EA
:10046A00559594549C5C5D9D5F9F9E5E5A9A9B5BDA
:10047A0099595898884849894B8B8A4A4E8E8F4F8A
:10048A008D4D4C8C448485458747468682424383FA
:08049A004181804000000000D8
:080DEB0041000000410001007D
:100D5D0053A27F438E1D53873F43878075985075EF
:100D6D009C64D2ACD2AFE490009BF0900004F09064
:080D7D000099F0900002F02241
:100D850043A210438E1D438780439A50759C64434C
:100D9500AF01D2AFE49000B0F0900005F090009A5A
:060DA500F0900003F022B3
:03002300020C6A62
:100C6A00C0E0C083C082C0D075D000C007309816DB
:100C7A00C29890001DE0FF04F074092FF582E43455
:100C8A0000F583E599F030992BC299900004E0FFB2
:100C9A0090009BE0C39F5013E0FF04F0745C2FF5B3
:100CAA0082E43400F583E0F5998009900004E4F0C9
:0F0CBA0090009BF0D007D0D0D082D083D0E03212
:03004300020B3677
:100B3600C0E0C083C082C0D075D000C007E59A303F
:100B4600E017539AFE9000B1E0FF04F0749C2FF575
:100B560082E43400F583E59BF0E59A30E12E539A62
:100B6600FD900005E0FF9000B0E0C39F5013E0FF4A
:100B760004F0747A2FF582E43400F583E0F59B8067
:100B86000B900005E4F09000B0F0C2A2D007D0D0E0
:070B9600D082D083D0E032D1
:05078E00900237EFF0BE
:10079300E4A3F0A3F0A3F0900000E014602C046045
:1007A300030208B3900237E0F460030208B3900039
:1007B3000004F0E490001FF090001EF0FE7F1EFD89
:1007C3007B017A00793E12063122900237E064FE03
:1007D300604AE0B4FD079000017401F0229000012B
:1007E300E07019900237E0FF90001EE0FE04F07401
:1007F3003E2EF582E43400F583EFF022900237E0D9
:1008030024FDFF90001EE0FE04F0743E2EF582E40A
:100813003400F583EFF0E4900001F02290001EE035
:10082300243CF582E43400F583E0B4FD1D90001E02
:10083300E0243DF582E43400F583E024FD900239A1
:10084300F090001EE024FEF0801890001EE0243D8E
:10085300F582E43400F583E0900239F090001EE065
:1008630014F0E490023AF090001EE0FF90023AE0A8
:10087300C39F501AE0243EF582E43400F583E0FF81
:10088300900238E02FF090023AE004F080D9900211
:1008930038E0FFA3E0B507089000987401F08005E5
:1008A300E4900098F090001EE0A3F0E4900000F0C4
:0108B3002222
:0E0C040090023BEBF0A3EAF0A3E9F0A3EDF0C1
:100C1200E4FFFE90005C74FFF0E490023EE0FDEF22
:100C2200C39D502690023BE0FBA3E0FAA3E0F98FBC
:100C3200827583001205B1FDAC060E745C2CF58240
:100C4200E43400F583EDF00F80D0900004EEF0D292
:100C5200A0E490009BF0E0FF04F0745C2FF582E4C6
:070C62003400F583E0F59971
:010C69002268
:0E065D00900232EBF0A3EAF0A3E9F0A3EDF077
:10066B00E4FF7E01A3F0900235E0FDEFC39D501D2A
:10067B00900232E0FBA3E0FAA3E0F98F82758300CE
:10068B001205B1FD900236E02DF00F80D990007A63
:10069B0074FFF0E4FF900235E0FDEFC39D507290C4
:1006AB000232E0FBA3E0FAA3E0F98F82758300121C
:1006BB0005B1C394FD5022900232E0A3E0A3E08F7A
:1006CB00827583001205B1FDAC060E747A2CF5828F
:1006DB00E43400F583EDF08035AD060E747A2DF51C
:1006EB0082E43400F58374FDF0900232E0FBA3E06A
:1006FB00FAA3E0F98F827583001205B12403FDACD8
:10070B00060E747A2CF582E43400F583EDF00F803D
:10071B0084900236E0C394FD5013E0FFAD060E74D7
:10072B007A2DF582E43400F583EFF08026AF060EC8
:10073B00747A2FF582E43400F58374FDF090023661
:10074B00E02403FFAD060E747A2DF582E43400F538
:10075B0083EFF0AF060E747A2FF582E43400F58345
:10076B0074FEF0AF06900005EFF0D2A2E49000B05B
:10077B00F0E0FF04F0747A2FF582E43400F583E0A7
:02078B00F59BDC
:01078D002249
:100A1A00900227EBF0A3EAF0A3E9F0A3ECF0A3ED30
:010A2A00F0DB
:100A2B00A374FFF0A3F090022A74FFF5F01205DE19
:100A3B0045F0605F900227E0FBA3E475F00112051F
:100A4B00DEA9F0FA120598FF90022CE06FFFE4FC90
:100A5B00FDFE90022E1205F490022EE0A3E0A3E01F
:100A6B00FEA3E0249AF58274023EF583E493FF9093
:100A7B00022DE06F90022CF090022EE0A3E0A3E099
:100A8B00A3E0249EF58274033EF583E49390022D3C
:0E0A9B00F0809390022CE0FEA3E0FDEEEDFF54
:010AA900222A
:100B9D00E4FF90001DE0D39407405690000AE0B4A6
:100BAD0003027F0890000AE0B401027F0890000A5A
:100BBD00E0B4100990000EE0FE2E2409FF90001DF8
:100BCD00E06F7028F0FE7B017A00790978207C00B7
:100BDD007D011205727E007F147D007B017A007904
:100BED00091206319000087401F08005E4900008A8
:060BFD00F0900008E0FF8B
:010C030022CE
:100DAB00E4F5D875D902F5E9F5F975EA8075FA809D
:0F0DBB0075DA4275EB8075FB8075DB42D2DE2264
:03000000020AAA47
:0C0AAA00787FE4F6D8FD758120020AF187
:1004A200E709F608DFFA8046E709F208DFFA803E3C
:1004B20088828C83E709F0A3DFFA8032E309F60829
:1004C200DFFA8078E309F208DFFA807088828C8391
:1004D200E309F0A3DFFA806489828A83E0A3F60845
:1004E200DFFA805889828A83E0A3F208DFFA804C1F
:1004F20080D280FA80C680D4806980F280338010F6
:1005020080A680EA809A80A880DA80E280CA80335E
:1005120089828A83ECFAE493A3C8C582C8CCC583D6
:10052200CCF0A3C8C582C8CCC583CCDFE9DEE780A6
:100532000D89828A83E493A3F608DFF9ECFAA9F025
:10054200EDFB2289828A83ECFAE0A3C8C582C8CC7B
:10055200C583CCF0A3C8C582C8CCC583CCDFEADE94
:10056200E880DB89828A83E493A3F208DFF980CCF6
:1005720088F0EF60010E4E60C388F0ED2402B404EF
:100582000050B9F582EB2402B4040050AF23234596
:0605920082239004F273C5
:10059800BB010689828A83E0225002E722BBFE0261
:0905A800E32289828A83E4932294
:1005B100BB010CE58229F582E5833AF583E02250FF
:1005C10006E92582F8E622BBFE06E92582F8E22249
:0D05D100E58229F582E5833AF583E4932263
:1005DE00A3F8E0C5F025F0F0E582158270021583D0
:0605EE00E0C838F0E8222D
:0C05F400ECF0A3EDF0A3EEF0A3EFF0227A
:10060000A8828583F0D083D08212061712061712B3
:100610000617120617E473E493A3C583C5F0C583D8
:10062000C8C582C8F0A3C583C5F0C583C8C582C844
:0106300022A7
:10063100EF4E6012EF60010EEDBB010B89828A83E0
:10064100F0A3DFFCDEFA2289F05007F709DFFCA9ED
:0C065100F022BBFEFCF309DFFCA9F02244
:100AB6000208B4E493A3F8E493A34003F68001F29A
:100AC60008DFF48029E493A3F85407240CC8C33341
:100AD600C4540F4420C8834004F456800146F6DF10
:100AE600E4800B0102040810204080900DDFE47EB4
:100AF600019360BCA3FF543F30E509541FFEE49305
:100B0600A360010ECF54C025E060A840B8E493A3CB
:100B1600FAE493A3F8E493A3C8C582C8CAC583CAF6
:100B2600F0A3C8C582C8CAC583CADFE9DEE780BEAE
:010DF30000FF
:00000001FF
