:0C000E004100A50041003D0041003E0003
:101B5700EFD39400400B7ED2EE60031E80FA1F8005
:011B6700EF8E
:011B6800225A
:03001B0002193394
:10193300C0E0C083C082C0D0C28F758DDC758B00C0
:1019430030000C900000E0D394004003E014F0302A
:10195300020C900012E0D394004003E014F0300135
:101963000C900001E0D394004003E014F030030C2A
:10197300900018E0D394004003E014F0900154E089
:10198300D394004003E014F0D0D0D082D083D0E0D1
:011993003221
:03000B00021031AF
:10103100C0E0C0F0C083C082C0D075D000C000C085
:1010410001C002C003C004C005C006C007C28D753F
:101051008C04758A009000B0E0702C90005DE06017
:10106100267B017A00795D900061E0FDA3E09001AB
:10107100F9F01213809000B07401F0900021740512
:10108100F090001A7401F090001AE0B4011C900075
:1010910021E0D394004003E014F0900021E0700AB5
:1010A1009000B0F090003EE004F090003EE0D39458
:1010B10004405D7E007F067D007B017A00795D1230
:1010C1000E059000A5E4F09000A5E0C3940A50330A
:1010D100E075F006A42463F9740035F0FA7B01C0D1
:1010E10001E075F006A4245DF9740035F0A801FC57
:1010F1007D01D0017E007F06120CDE9000A5E00488
:10110100F080C49000B0E4F090003EF090001AF03E
:10111100900022E0D394004003E014F0900022E01C
:10112100704790003804F0A3E4F090003C7402F0A2
:10113100A3E4F090001FE0700F04F0FB7A0079380F
:101141001214E490001FE4F090003D7401F090004F
:101151001FE0700F04F0FB7A0079381214E490005C
:101161001FE4F090002274C8F0900023E0D39400B3
:101171004003E014F0900023E070459000387404BF
:10118100F090003C7401F0A3E4F090001FE0700FB8
:1011910004F0FB7A0079381214E490001FE4F09017
:1011A100003D7401F090001FE0700F04F0FB7A0025
:1011B10079381214E490001FE4F09000237464F075
:1011C100D007D006D005D004D003D002D001D00082
:0B11D100D0D0D082D083D0F0D0E0322C
:08158C009001F3EFF0A3EDF074
:101594007E007F507D007B017A0179F5120E059063
:1015A40001F57401F0A37403F09001F4E0FF2F90AF
:1015B40001F7F0E0FF7E00C006C0079001F3E0757C
:1015C400F002A424B3F9740035F0FA7B0178F87CB6
:1015D400017D01D007D006120CDE7B017A0179F57A
:1015E4009001F7E02403FDE433FC1217EC9002456C
:1015F400EEF0A3EFF07B017A027945C0019001F788
:10160400E024F8F9E43401A801FC7D01D0017E0056
:101614007F02120CDE7B017A0179F59001F7E02458
:0516240005FD1218CFC6
:01162900229E
:0E06BC009001F3EFF0A3EBF0A3EAF0A3E9F056
:1006CA007E007F227D007B017A0179F8120E059067
:1006DA0001F87401F0A37410F0E4A3F09001F3E0C0
:1006EA009001FBF0E4A3F0A3F07B017A0179F87D95
:1006FA0006FC1217EC90021AEEF0A3EFF07B017AD7
:10070A0002791A78FE7C017D017E007F02120CDEDE
:10071A007B017A0179F87D081218CF9001F3E07015
:10072A0043A3E0FBA3E0FAA3E0F9C0019001F3E0E0
:10073A0075F002A424B3F9740035F0A801FC7D0118
:10074A00D0017E007F02120CDE9001F4E0FBA3E0F0
:10075A00FAA3E0F9900001120D1DFF900040E4F0A9
:10076A00A3EFF0229001F3E064017043A3E0FBA33E
:10077A00E0FAA3E0F9C0019001F3E075F002A424C5
:10078A00B3F9740035F0A801FC7D01D0017E007F29
:10079A0002120CDE9001F4E0FBA3E0FAA3E0F99068
:1007AA000001120D1DFF9000A8E4F0A3EFF02290C3
:1007BA0001F3E064027050A3E0FBA3E0FAA3E0F9BE
:1007CA00C0019001F3E075F002A424B3F974003576
:1007DA00F0A801FC7D01D0017E007F02120CDE90A0
:1007EA0001F4E0FBA3E0FAA3E0F9900001120D1D69
:1007FA00FD9001F4E0A3E0A3E0120D04FFED9000E8
:10080A00A3CFF0A3EFF0229001F3E064037050A3AA
:10081A00E0FBA3E0FAA3E0F9C0019001F3E075F070
:10082A0002A424B3F9740035F0A801FC7D01D001BB
:10083A007E007F02120CDE9001F4E0FBA3E0FAA333
:10084A00E0F9900001120D1DFD9001F4E0A3E0A370
:10085A00E0120D04FFED9000ACCFF0A3EFF0229070
:10086A0001F3E0640460030208FA9000387402F0AD
:10087A009001F4E0FBA3E0FAA3E0F9900003120D63
:10088A001D900039F09001F4E0A3E0A3E0120D04FA
:10089A0090003AF09001F4E0A3E0A3E09000011286
:1008AA000D1D90003BF0A37404F0E4A3F090001F28
:1008BA00E06003020C0D04F0FB7A0079381214E4AC
:1008CA009001F4E0FBA3E0FAA3E0F9C0019001F380
:1008DA00E075F002A424B3F9740035F0A801FC7D98
:1008EA0001D0017E007F04120CDEE490001FF0228A
:1008FA009001F3E064077043A3E0FBA3E0FAA3E0EE
:10090A00F9C0019001F3E075F002A424B3F9740070
:10091A0035F0A801FC7D01D0017E007F02120CDEB9
:10092A009001F4E0FBA3E0FAA3E0F9900001120DB4
:10093A001DFF90005BE4F0A3EFF0229001F3E06466
:10094A00087043A3E0FBA3E0FAA3E0F9C001900119
:10095A00F3E075F002A424B3F9740035F0A801FCA1
:10096A007D01D0017E007F02120CDE9001F4E0FBD3
:10097A00A3E0FAA3E0F9900001120D1DFF9000AE6A
:10098A00E4F0A3EFF0229001F3E064097050A3E0D1
:10099A00FBA3E0FAA3E0F9C0019001F3E075F002CD
:1009AA00A424B3F9740035F0A801FC7D01D0017EBE
:1009BA00007F02120CDE9001F4E0FBA3E0FAA3E050
:1009CA00F9900001120D1DFD9001F4E0A3E0A3E0EF
:1009DA00120D04FFED9000A6CFF0A3EFF0229001D4
:1009EA00F3E0640A7050A3E0FBA3E0FAA3E0F9C0C5
:1009FA00019001F3E075F002A424B3F9740035F014
:100A0A00A801FC7D01D0017E007F02120CDE90015C
:100A1A00F4E0FBA3E0FAA3E0F9900001120D1DFD3A
:100A2A009001F4E0A3E0A3E0120D04FFED9000B101
:100A3A00CFF0A3EFF0229001F3E0640B6003020A07
:100A4A00D0A3E0FBA3E0FAA3E0F9C0019001F3E030
:100A5A0075F002A424B3F9740035F0A801FC7D01F5
:100A6A00D0017E007F04120CDE9000387402F090F0
:100A7A0001F4E0FBA3E0FAA3E0F9900003120D1DD4
:100A8A00900039F09001F4E0A3E0A3E0120D049085
:100A9A00003AF09001F4E0A3E0A3E0900001120D07
:100AAA001D90003BF0A37404F0A37401F090001FA2
:100ABA00E06003020C0D04F0FB7A0079381214E4AA
:100ACA00E490001FF0229001F3E064067067900042
:100ADA00387403F09001F4E0FBA3E0FAA3E0F99084
:100AEA000001120D1D900039F090003C7402F0E4F0
:100AFA00A3F090001FE06003020C0D04F0FB7A00E3
:100B0A0079381214E49001F4E0FBA3E0FAA3E0F9C7
:100B1A00C0019001F3E075F002A424B3F974003522
:100B2A00F0A801FC7D01D0017E007F02120CDEE4F8
:100B3A0090001FF0229001F3E0640D706790003876
:100B4A007403F09001F4E0FBA3E0FAA3E0F990004B
:100B5A0001120D1D900039F090003C7402F0A314AC
:100B6A00F090001FE06003020C0D04F0FB7A00799C
:100B7A00381214E49001F4E0FBA3E0FAA3E0F9C010
:100B8A00019001F3E075F002A424B3F9740035F082
:100B9A00A801FC7D01D0017E007F02120CDEE490E8
:100BAA00001FF0229001F3E0B41F29A3E0FBA3E0A9
:100BBA00FAA3E0F9C0019001F3E075F002A424B3AE
:100BCA00F9740035F0A801FC7D01D0017E007F0296
:100BDA00120CDE229001F3E0B42028A3E0FBA3E08C
:100BEA00FAA3E0F9C0019001F3E075F002A424B37E
:100BFA00F9740035F0A801FC7D01D0017E007F0266
:030C0A00120CDEEB
:010C0D0022C4
:10004600C2A0C2A1C2A2C2A3121A9E121AF1120023
:100056002E121B177F64121B57758911758C04E4C9
:10006600F58AD2A9D288C28DD28C758DDCF58BD259
:10007600ABD28AC28FD28ED2AFD200C202900040DB
:10008600F0A3F09000A8F0A3F09000A3F0A3F090E6
:1000960000ACF0A3F0D201C20390005BF0A3F09095
:1000A60000AEF0A3F09000A6F0A3F09000B1F0A38C
:1000B600F0C2A4C2A590000E120DD400000000905C
:1000C6000013120DD40000000090009F120DD40002
:1000D600000000900006120DD400000000900002FF
:1000E600120DD40000000090001B120DD400000079
:1000F6000090000A120DD400000000E49001E8F020
:10010600900152F09001CFF090013DF09000B0F0D8
:1001160090001FF09000AAF0A3F0900023F090004A
:1001260022F0FE7F84FD7B017A0079B3120E057EF4
:10013600007F427D007B017A00795D120E0530005A
:100146002F900000E070299000A8E0FEA3E0FF7C5D
:10015600007D0A120D4AEF75F0FFA4F5FAD202C22D
:10016600009000ADE0900012F0E4FDAFFA121A4DD7
:1001760030022F900012E07029900040E0FEA3E0CC
:10018600FF7C007D0A120D4AEF75F0FFA4F5FAD246
:1001960000C2029000A4E0900000F0E4FDAFFA1265
:1001A6001A4D30012F900001E070299000AEE0FE5C
:1001B600A3E0FF7C007D0A120D4AEF75F0FFA4F55F
:1001C600FBD203C2019000B2E0900018F07D01AFAF
:1001D600FB121A4D30032F900018E0702990005B37
:1001E600E0FEA3E0FF7C007D0A120D4AEF75F0FFEA
:1001F600A4F5FBD201C2039000A7E0900001F07DB8
:1002060001AFFB121A4D900152E0D3940040081240
:10021600186190013DEFF090013DE064016003023A
:1002260002B4900158E024F06013240D707B900115
:100236005AE0FF90015CE0FD12158C806C90015C29
:10024600E0B4012990015EE09001EFF090015FE0DB
:100256009001F0F0E4A3F0A3F090015AE0FF7B01D7
:100266007A0179EF9001F77401F01206BC90015CF7
:10027600E06402703490015EE09001EFF090015F5F
:10028600E09001F0F0900160E09001F1F0900161E2
:10029600E09001F2F090015AE0FF7B017A0179EFDC
:1002A6009001F77402F01206BCE490013DF0900153
:1002B600E8E0D39400402EE024D2F582E43401F540
:1002C60083E0B4FE089001D3E0FF121AC9900154EE
:1002D600E07012FE7F14FD7B017A0179D3120E05C0
:1002E600E49001E8F09001CFE0640160030201446C
:1002F600900175E06409700302069AE06004FF123B
:100306001B3AE490001AF0900175E064086003025D
:1003160005D3900062E07077900177E0FFE4FCFD82
:10032600FE7810120DB5C004C005C006C0079001C6
:1003360076E0FFE4FCFDFE7818120DB5D003D0027E
:10034600D001D000EF4BFFEE4AFEED49FDEC48FC34
:10035600C004C005C006C007900178E0FFE4FCFDBC
:10036600FE7808120DB5D003D002D001D000EF4BB5
:10037600FBEE4AFAED49F9EC48F8A3E0FFE4EB4F4F
:10038600FFEAFEE9FDE8FC90000E120DC8807590AC
:100396000177E0FFE4FCFDFE7810120DB5C004C045
:1003A60005C006C007900176E0FFE4FCFDFE781864
:1003B600120DB5D003D002D001D000EF4BFFEE4AAC
:1003C600FEED49FDEC48FCC004C005C006C0079020
:1003D6000178E0FFE4FCFDFE7808120DB5D003D0ED
:1003E60002D001D000EF4BFBEE4AFAED49F9EC489A
:1003F600F8A3E0FFE4EB4FFFEAFEE9FDE8FC90001E
:1004060013120DC89000EFE07004A3E06401704A77
:10041600900013E0FCA3E0FDA3E0FEA3E0FF900044
:100426000EE0F8A3E0F9A3E0FAA3E02FFFEA3EFE10
:10043600E93DFDE83CFC90000A120DC890000AE078
:10044600FCA3E0FDA3E0FEA3E0FF9001F5120DC8BA
:100456007F0E7E001216C702055E9000EFE0700464
:10046600A3E06402704A900013E0FCA3E0FDA3E061
:10047600FEA3E0FF90000EE0F8A3E0F9A3E0FAA3E4
:10048600E02FFFEA3EFEE93DFDE83CFC90001B1232
:100496000DC890000AE0FCA3E0FDA3E0FEA3E0FF88
:1004A6009001F5120DC87F107E001216C702055E78
:1004B6009000EFE07004A3E064037049900013E03D
:1004C600FCA3E0FDA3E0FEA3E0FF90000EE0F8A38E
:1004D600E0F9A3E0FAA3E02FFFEA3EFEE93DFDE8DE
:1004E6003CFC900002120DC890000AE0FCA3E0FD5F
:1004F600A3E0FEA3E0FF9001F5120DC87F127E0077
:100506001216C780539000EFE07004A3E0640470F5
:1005160047900013E0FCA3E0FDA3E0FEA3E0FF90FC
:10052600000EE0F8A3E0F9A3E0FAA3E02FFFEA3E0D
:10053600FEE93DFDE83CFC900006120DC890000A5D
:10054600E0FCA3E0FDA3E0FEA3E0FF9001F5120DA1
:10055600C87F147E001216C790001BE0FCA3E0FDC6
:10056600A3E0FEA3E0FF90000AE0F8A3E0F9A3E011
:10057600FAA3E02FFFEA3EFEE93DFDE83CFC9000D1
:1005860002E0F8A3E0F9A3E0FAA3E02FFFEA3EFEBB
:10059600E93DFDE83CFCA3E0F8A3E0F9A3E0FAA3FB
:1005A600E02FFFEA3EFEE93DFDE83CFC90009F128D
:1005B6000DC890000AE0FCA3E0FDA3E0FEA3E0FF67
:1005C6009001F5120DC87F167E001216C7900175B0
:1005D600E06405706A900062E07034900176E0FF96
:1005E6009000E7E4F0A3EFF09000F1E0FEA3E0FF57
:1005F6009000E7E06E7003A3E06F600A9000EBE402
:10060600F0A304F08039E49000EBF0A3F080309082
:100616000176E0FF9000F5E4F0A3EFF09000F3E040
:10062600FEA3E0FFA3E06E7003A3E06F600A9000F4
:10063600EDE4F0A304F08007E49000EDF0A3F07E73
:10064600007F067D007B017A00795D120E05E4903D
:1006560000A5F09000A5E0C3940A5033E075F006BB
:10066600A42463F9740035F0FA7B01C001E075F04B
:1006760006A4245DF9740035F0A801FC7D01D001C3
:100686007E007F06120CDE9000A5E004F080C4E434
:100696009000B0F0900175E0B40912E490001AF0F1
:1006A600FE7F1EFD7B017A017975120E05E490012D
:0506B600CFF002014439
:0106BB00221C
:101B3A009001F37409F0A3EFF07B017A0179F39035
:0C1B4A000062E09001F9F07D02121380AF
:011B5600226C
:0816C7009001F3EEF0A3EFF037
:1016CF00E49001F9F0A3F0FBFA9001F5E0FCA3E040
:1016DF00FDA3E0FEA3E0FFEEE4AA06AB079001F73F
:1016EF00E0A3E07810CEC313CE13D8F9FF9001F921
:1016FF00EEF0A3EFF0AE02AF03E4FCFD7810120D95
:10170F00B5A804A905AA06AB079001F9E0FEA3E06E
:10171F00FFE4FCFDEB2FFFEA3EFEED39FDEC38FC5C
:10172F009001F5120DC87B017A0179F5C001900186
:10173F00F4E025E0FF9001F3E033FE74B32FF9746A
:10174F00003EA801FC7D01D0017E007F04120CDE5B
:01175F002267
:0B14E40090021CEBF0A3EAF0A3E9F07B
:1014EF00E4FFFEEFC3940A400302158BEF75F0067D
:1014FF00A4245DF582E43400F583E0604290021C81
:10150F00E0FBA3E0FAA3E0F9120D04FDEF75F0067E
:10151F00A4245DF582E43400F583E06D705A9002E7
:10152F001CE0A3E0A3E0900005120D1DFDEF75F088
:10153F0006A42462F582E43400F583E06D7039E48B
:10154F00FEEEC39406503590021CE0FBA3E0FAA315
:10155F00E0F98E82758300120D1DFDEF75F006A464
:10156F00245DF582E43400F583E5822EF582E435BF
:0C157F0083F583EDF00E80C90F0214F21A
:01158B00223D
:100E310000C1814001C0804101C0804100C18140A9
:100E410001C0804100C1814000C1814001C0804199
:100E510001C0804100C1814000C1814001C0804189
:100E610000C1814001C0804101C0804100C1814079
:100E710001C0804100C1814000C1814001C0804169
:100E810000C1814001C0804101C0804100C1814059
:100E910000C1814001C0804101C0804100C1814049
:100EA10001C0804100C1814000C1814001C0804139
:100EB10001C0804100C1814000C1814001C0804129
:100EC10000C1814001C0804101C0804100C1814019
:100ED10000C1814001C0804101C0804100C1814009
:100EE10001C0804100C1814000C1814001C08041F9
:100EF10000C1814001C0804101C0804100C18140E9
:100F010001C0804100C1814000C1814001C08041D8
:100F110001C0804100C1814000C1814001C08041C8
:100F210000C1814001C0804101C0804100C18140B8
:100F310000C0C101C30302C2C60607C705C5C40478
:100F4100CC0C0DCD0FCFCE0E0ACACB0BC90908C8E8
:100F5100D81819D91BDBDA1A1EDEDF1FDD1D1CDCD8
:100F610014D4D515D71716D6D21213D311D1D01048
:100F7100F03031F133F3F23236F6F737F53534F438
:100F81003CFCFD3DFF3F3EFEFA3A3BFB39F9F838A8
:100F910028E8E929EB2B2AEAEE2E2FEF2DEDEC2C98
:100FA100E42425E527E7E62622E2E323E12120E008
:100FB100A06061A163A3A26266A6A767A56564A4F8
:100FC1006CACAD6DAF6F6EAEAA6A6BAB69A9A86868
:100FD10078B8B979BB7B7ABABE7E7FBF7DBDBC7C58
:100FE100B47475B577B7B67672B2B373B17170B0C8
:100FF10050909151935352929656579755959454B8
:101001009C5C5D9D5F9F9E5E5A9A9B5B9959589827
:10101100884849894B8B8A4A4E8E8F4F8D4D4C8C17
:101021004484854587474686824243834181804087
:101A9E0053A27F538EFB438E1153873F438780752E
:101AAE009850759CFAD2ACD2AFE49001D2F090016E
:0B1ABE0039F09001D0F0900137F022C9
:101AF10043A210438E19438780439A50759CFA4341
:101B0100AF01D2AFE49001E7F090013AF09001D13A
:061B1100F0900138F02203
:030023000219942B
:10199400C0E0C083C082C0D075D000C007309816A4
:1019A400C298900152E0FF04F0743E2FF582E434B3
:1019B40001F583E599F030992BC299900139E0FF44
:1019C4009001D2E0C39F5013E0FF04F074932FF50D
:1019D40082E43401F583E0F5998009900139E4F05B
:0F19E4009001D2F0D007D0D0D082D083D0E032A3
:0300430002162A78
:10162A00C0E0C083C082C0D075D000C007E59A3040
:10163A00E01D539AFE9001E8E0FF04F074D32FF501
:10164A0082E43401F583E59BF09001547403F0E5DC
:10165A009A30E15E539AFD90013AE0FF9001E7E08B
:10166A00C39F5013E0FF04F074B12FF582E43401F4
:10167A00F583E0F59B803B90013AE024B1F582E4E2
:10168A003401F583E0B41008C2A0C2A1D2A2C2A359
:10169A0090013AE024B1F582E43401F583E0B42004
:1016AA0008C2A2C2A3D2A0C2A190013AE4F090015A
:0D16BA00E7F0D007D0D0D082D083D0E0324E
:0511DC009001F5EFF0A9
:1011E100E4A3F0A3F0A3F0A3F0900222F09001F5A4
:1011F100E0640170287B017A01793E780E7C027DE2
:1012010001FE7F14120CDE900152E0900222F09058
:10121100020EE0F46030E4900153F0FF227B017A8A
:101221000179D3780E7C027D017E007F14120CDEE1
:101231009001E8E0900222F090020EE0F46007E4F1
:10124100900154F0FF227E007F147D007B017A0122
:1012510079FA120E05E490013BF09001F904F09047
:101261000222E0FF9001F9E0C39F4003021315E061
:10127100240EF582E43402F583E0FF64FE6046EF5C
:10128100B4FD099001F67401F002130C9001F6E02F
:10129100701590013BE0FE04F074FA2EF582E434FF
:1012A10001F583EFF08064EF24FDFF90013BE0FE48
:1012B10004F074FA2EF582E43401F583EFF0E49042
:1012C10001F6F0804690013BE024F8F582E4340118
:1012D100F583E0B4FD1D90013BE024F9F582E4348F
:1012E10001F583E024FD9001F8F090013BE024FE3C
:1012F100F0801890013BE024F9F582E43401F58394
:10130100E09001F8F090013BE014F09001F9E00465
:10131100F0021260E49001F9F090013BE0FF9001CE
:10132100F9E0C39F501AE024FAF582E43401F58311
:10133100E0FF9001F7E02FF09001F9E004F080D98F
:101341009001F7E0FFA3E06F70329001F5E0B40186
:10135100157B017A0179FA78577C017D017E007F46
:1013610014120CDE80137B017A0179FA78757C0105
:0E1371007D017E007F14120CDE7F01227F00C2
:01137F00224B
:051AC9009001F3EFF0B5
:101ACE00E4A3F07F021211DC9001F4EFF0E0B40118
:101ADE000C9001CF7401F0E4900154F022E49001D7
:021AEE00CFF037
:011AF00022D3
:0E18CF00900247EBF0A3EAF0A3E9F0A3EDF0DE
:1018DD00E4FFFE90019374FFF0E490024AE0FDEF07
:1018ED00C39D5026900247E0FBA3E0FAA3E0F98FD9
:1018FD0082758300120D1DFDAC060E74932CF582BE
:10190D00E43401F583EDF00F80D0900139EEF0E471
:10191D009001D2F0E0FF04F074932FF582E43401CE
:05192D00F583E0F599CF
:011932002292
:0E1380009001F5EBF0A3EAF0A3E9F0A3EDF085
:10138E00E4FF7E019001FAF09001F8E0FDEFC39DBD
:10139E00501D9001F5E0FBA3E0FAA3E0F98F8275F2
:1013AE008300120D1DFD9001FAE02DF00F80D990F3
:1013BE0001B174FFF0E4FF9001F8E0FDEFC39D5022
:1013CE00729001F5E0FBA3E0FAA3E0F98F8275833A
:1013DE0000120D1DC394FD50229001F5E0A3E0A371
:1013EE00E08F82758300120D1DFDAC060E74B12CBC
:1013FE00F582E43401F583EDF08035AD060E74B15F
:10140E002DF582E43401F58374FDF09001F5E0FBD7
:10141E00A3E0FAA3E0F98F82758300120D1D240359
:10142E00FDAC060E74B12CF582E43401F583EDF0BB
:10143E000F80849001FAE0C394FD5013E0FFAD06D7
:10144E000E74B12DF582E43401F583EFF08026AFF2
:10145E00060E74B12FF582E43401F58374FDF0901D
:10146E0001FAE02403FFAD060E74B12DF582E434CB
:10147E0001F583EFF0AF060E74B12FF582E434015F
:10148E00F58374FEF090013AEEF09001F9E0701AD7
:10149E00D2A2C2A3D2A0D2A1AF060E74B12FF582F2
:1014AE00E43401F5837410F08015D2A0C2A1D2A24B
:1014BE00D2A374B12EF582E43401F5837420F0E4E6
:1014CE009001E7F0E0FF04F074B12FF582E43401EF
:0514DE00F583E0F59B21
:0114E30022E6
:1017EC00900247EBF0A3EAF0A3E9F0A3ECF0A3ED31
:0117FC00F0FC
:1017FD00A374FFF0A3F090024A74FFF5F0120D9F51
:10180D0045F06044900247E0FBA3E475F001120D32
:10181D009FA9F0FA120D04FF90024CE06FFFE4FC5B
:10182D00FDFE90024E120DC8900251E0900E3193C4
:10183D00FF90024DE06F90024CF0900251E0900F3E
:10184D00319390024DF080AE90024CE0FEA3E0FD8E
:03185D00EEEDFFAE
:011860002265
:10186100E4FF900152E0D39407405890013FE0B467
:1018710003027F0890013FE0B401027F0890013F1D
:10188100E0B41009900143E0FE2E2409FF900152BB
:10189100E06F7028F0FE7B017A01793E78577C0178
:1018A1007D01120CDE7E007F147D007B017A0179BF
:1018B1003E120E0590013D7401F0800CE490013D53
:0D18C100F08005E490013DF090013DE0FF56
:0118CE0022F7
:10002E00E4F5D875D902F5E9F5F975DA4275DB42D2
:03003E00D2DE22ED
:101B1700759D0343A204E4F5BDF5BE75BC8043A8DB
:101B2700A0900252F07F02121B57900252E04488A5
:031B3700F5BC22D8
:03002B000219F3C4
:1019F300C0E0C083C082C0D075D00875BC00AFBE44
:101A0300EF240AFFAEBDEE7E00A80F088005C333A6
:101A1300CE33CED8F9FF900252E025E024E3F582DD
:101A2300E43400F583EEF0A3EFF0900252E070048B
:101A330004F08005900252E4F0900252E04488F5ED
:0A1A4300BCD0D0D082D083D0E032B6
:101A4D00ED25E024E3F582E43400F583E0FCA3E02A
:101A5D00FDEF1313543FFB7A00D3ED9BEC9A400E30
:101A6D00ED9BFEEC9A9001F3F0A3CEF08011AE0445
:101A7D00AF05C3EB9FFFEA9E9001F3F0A3EFF0D308
:101A8D009001F4E094649001F3E094004002C2A44C
:011A9D002226
:0300000002176084
:0C176000787FE4F6D8FD7581200217A701
:100C0E00E709F608DFFA8046E709F208DFFA803EC8
:100C1E0088828C83E709F0A3DFFA8032E309F608B5
:100C2E00DFFA8078E309F208DFFA807088828C831D
:100C3E00E309F0A3DFFA806489828A83E0A3F608D1
:100C4E00DFFA805889828A83E0A3F208DFFA804CAB
:100C5E0080D280FA80C680D4806980F28033801082
:100C6E0080A680EA809A80A880DA80E280CA8033EB
:100C7E0089828A83ECFAE493A3C8C582C8CCC58363
:100C8E00CCF0A3C8C582C8CCC583CCDFE9DEE78033
:100C9E000D89828A83E493A3F608DFF9ECFAA9F0B2
:100CAE00EDFB2289828A83ECFAE0A3C8C582C8CC08
:100CBE00C583CCF0A3C8C582C8CCC583CCDFEADE21
:100CCE00E880DB89828A83E493A3F208DFF980CC83
:100CDE0088F0EF60010E4E60C388F0ED2402B4047C
:100CEE000050B9F582EB2402B4040050AF23234523
:060CFE008223900C5E73DE
:100D0400BB010689828A83E0225002E722BBFE02ED
:090D1400E32289828A83E4932220
:100D1D00BB010CE58229F582E5833AF583E022508B
:100D2D0006E92582F8E622BBFE06E92582F8E222D5
:0D0D3D00E58229F582E5833AF583E49322EF
:100D4A00BC000BBE0029EF8DF084FFADF022E4CC8D
:100D5A00F875F008EF2FFFEE33FEEC33FCEE9DEC56
:100D6A00984005FCEE9DFE0FD5F0E9E4CEFD22ED9C
:100D7A00F8F5F0EE8420D21CFEADF075F008EF2FE6
:100D8A00FFED33FD4007985006D5F0F222C398FDD7
:050D9A000FD5F0EA2274
:100D9F00A3F8E0C5F025F0F0E58215827002158307
:060DAF00E0C838F0E82264
:100DB500E8600FEFC333FFEE33FEED33FDEC33FC9C
:030DC500D8F12240
:0C0DC800ECF0A3EDF0A3EEF0A3EFF0229E
:100DD400A8828583F0D083D082120DEB120DEB1222
:100DE4000DEB120DEBE473E493A3C583C5F0C58347
:100DF400C8C582C8F0A3C583C5F0C583C8C582C869
:010E040022CB
:100E0500EF4E6012EF60010EEDBB010B89828A8304
:100E1500F0A3DFFCDEFA2289F05007F709DFFCA911
:0C0E2500F022BBFEFCF309DFFCA9F02268
:10176C00020046E493A3F8E493A34003F68001F24D
:10177C0008DFF48029E493A3F85407240CC8C3337E
:10178C00C4540F4420C8834004F456800146F6DF4D
:10179C00E4800B010204081020408090000EE47ECF
:1017AC00019360BCA3FF543F30E509541FFEE49342
:1017BC00A360010ECF54C025E060A840B8E493A309
:1017CC00FAE493A3F8E493A3C8C582C8CAC583CA34
:1017DC00F0A3C8C582C8CAC583CADFE9DEE780BEEC
:01001A0000E5
:00000001FF
